{
  "contractName": "CharityPlatform",
  "abi": [
    {
      "inputs": [],
      "stateMutability": "nonpayable",
      "type": "constructor"
    },
    {
      "anonymous": false,
      "inputs": [
        {
          "indexed": false,
          "internalType": "uint256",
          "name": "charityId",
          "type": "uint256"
        },
        {
          "indexed": true,
          "internalType": "address",
          "name": "charityAddress",
          "type": "address"
        },
        {
          "indexed": false,
          "internalType": "string",
          "name": "name",
          "type": "string"
        }
      ],
      "name": "CharityCreated",
      "type": "event"
    },
    {
      "anonymous": false,
      "inputs": [
        {
          "indexed": true,
          "internalType": "address",
          "name": "donor",
          "type": "address"
        },
        {
          "indexed": true,
          "internalType": "address",
          "name": "charity",
          "type": "address"
        },
        {
          "indexed": false,
          "internalType": "uint256",
          "name": "amount",
          "type": "uint256"
        }
      ],
      "name": "DonationMade",
      "type": "event"
    },
    {
      "inputs": [
        {
          "internalType": "uint256",
          "name": "",
          "type": "uint256"
        }
      ],
      "name": "charities",
      "outputs": [
        {
          "internalType": "string",
          "name": "name",
          "type": "string"
        },
        {
          "internalType": "string",
          "name": "description",
          "type": "string"
        },
        {
          "internalType": "address payable",
          "name": "charityAddress",
          "type": "address"
        },
        {
          "internalType": "uint256",
          "name": "balance",
          "type": "uint256"
        }
      ],
      "stateMutability": "view",
      "type": "function"
    },
    {
      "inputs": [],
      "name": "charityCount",
      "outputs": [
        {
          "internalType": "uint256",
          "name": "",
          "type": "uint256"
        }
      ],
      "stateMutability": "view",
      "type": "function"
    },
    {
      "inputs": [
        {
          "internalType": "uint256",
          "name": "",
          "type": "uint256"
        }
      ],
      "name": "donorList",
      "outputs": [
        {
          "internalType": "address",
          "name": "",
          "type": "address"
        }
      ],
      "stateMutability": "view",
      "type": "function"
    },
    {
      "inputs": [
        {
          "internalType": "address",
          "name": "",
          "type": "address"
        }
      ],
      "name": "donors",
      "outputs": [
        {
          "internalType": "uint256",
          "name": "totalDonated",
          "type": "uint256"
        }
      ],
      "stateMutability": "view",
      "type": "function"
    },
    {
      "inputs": [],
      "name": "owner",
      "outputs": [
        {
          "internalType": "address",
          "name": "",
          "type": "address"
        }
      ],
      "stateMutability": "view",
      "type": "function"
    },
    {
      "inputs": [
        {
          "internalType": "string",
          "name": "_name",
          "type": "string"
        },
        {
          "internalType": "string",
          "name": "_description",
          "type": "string"
        },
        {
          "internalType": "address payable",
          "name": "_charityAddress",
          "type": "address"
        }
      ],
      "name": "createCharity",
      "outputs": [],
      "stateMutability": "nonpayable",
      "type": "function"
    },
    {
      "inputs": [
        {
          "internalType": "uint256",
          "name": "_charityId",
          "type": "uint256"
        }
      ],
      "name": "donateToCharity",
      "outputs": [],
      "stateMutability": "payable",
      "type": "function"
    },
    {
      "inputs": [],
      "name": "getCharityCount",
      "outputs": [
        {
          "internalType": "uint256",
          "name": "",
          "type": "uint256"
        }
      ],
      "stateMutability": "view",
      "type": "function"
    },
    {
      "inputs": [
        {
          "internalType": "uint256",
          "name": "_charityId",
          "type": "uint256"
        }
      ],
      "name": "getCharityDetails",
      "outputs": [
        {
          "internalType": "string",
          "name": "",
          "type": "string"
        },
        {
          "internalType": "string",
          "name": "",
          "type": "string"
        },
        {
          "internalType": "address",
          "name": "",
          "type": "address"
        },
        {
          "internalType": "uint256",
          "name": "",
          "type": "uint256"
        }
      ],
      "stateMutability": "view",
      "type": "function"
    }
  ],
  "bytecode": "0x6080604052600060015534801561001557600080fd5b50336000806101000a81548173ffffffffffffffffffffffffffffffffffffffff021916908373ffffffffffffffffffffffffffffffffffffffff1602179055506112c1806100656000396000f3fe6080604052600436106100865760003560e01c80638da5cb5b116100595780638da5cb5b1461015c5780639132949314610187578063beeaee91146101b2578063ca0cdea8146101ce578063fb709d2e1461020b57610086565b806314bbb9ac1461008b578063539a4a31146100b45780635eed3dcb146100f45780637185a44b14610131575b600080fd5b34801561009757600080fd5b506100b260048036038101906100ad9190610c44565b61024b565b005b3480156100c057600080fd5b506100db60048036038101906100d69190610cc3565b610423565b6040516100eb9493929190610ecc565b60405180910390f35b34801561010057600080fd5b5061011b60048036038101906101169190610cc3565b6105f3565b6040516101289190610e5e565b60405180910390f35b34801561013d57600080fd5b50610146610632565b6040516101539190610f7f565b60405180910390f35b34801561016857600080fd5b5061017161063c565b60405161017e9190610e5e565b60405180910390f35b34801561019357600080fd5b5061019c610660565b6040516101a99190610f7f565b60405180910390f35b6101cc60048036038101906101c79190610cc3565b610666565b005b3480156101da57600080fd5b506101f560048036038101906101f09190610c1b565b610953565b6040516102029190610f7f565b60405180910390f35b34801561021757600080fd5b50610232600480360381019061022d9190610cc3565b610971565b6040516102429493929190610e79565b60405180910390f35b60008054906101000a900473ffffffffffffffffffffffffffffffffffffffff1673ffffffffffffffffffffffffffffffffffffffff163373ffffffffffffffffffffffffffffffffffffffff16146102d9576040517f08c379a00000000000000000000000000000000000000000000000000000000081526004016102d090610f5f565b60405180910390fd5b600160008154809291906102ec9061115f565b919050555060405180608001604052808481526020018381526020018273ffffffffffffffffffffffffffffffffffffffff1681526020016000815250600260006001548152602001908152602001600020600082015181600001908051906020019061035a929190610ad1565b506020820151816001019080519060200190610377929190610ad1565b5060408201518160020160006101000a81548173ffffffffffffffffffffffffffffffffffffffff021916908373ffffffffffffffffffffffffffffffffffffffff160217905550606082015181600301559050508073ffffffffffffffffffffffffffffffffffffffff167f2e4264777220778f9b5a2bcad61a6966bc02f075e0434bc248168f6de2598ba860015485604051610416929190610f9a565b60405180910390a2505050565b6060806000806000600260008781526020019081526020016000206040518060800160405290816000820180546104599061112d565b80601f01602080910402602001604051908101604052809291908181526020018280546104859061112d565b80156104d25780601f106104a7576101008083540402835291602001916104d2565b820191906000526020600020905b8154815290600101906020018083116104b557829003601f168201915b505050505081526020016001820180546104eb9061112d565b80601f01602080910402602001604051908101604052809291908181526020018280546105179061112d565b80156105645780601f1061053957610100808354040283529160200191610564565b820191906000526020600020905b81548152906001019060200180831161054757829003601f168201915b505050505081526020016002820160009054906101000a900473ffffffffffffffffffffffffffffffffffffffff1673ffffffffffffffffffffffffffffffffffffffff1673ffffffffffffffffffffffffffffffffffffffff168152602001600382015481525050905080600001518160200151826040015183606001519450945094509450509193509193565b6004818154811061060357600080fd5b906000526020600020016000915054906101000a900473ffffffffffffffffffffffffffffffffffffffff1681565b6000600154905090565b60008054906101000a900473ffffffffffffffffffffffffffffffffffffffff1681565b60015481565b600034116106a9576040517f08c379a00000000000000000000000000000000000000000000000000000000081526004016106a090610f1f565b60405180910390fd5b600073ffffffffffffffffffffffffffffffffffffffff166002600083815260200190815260200160002060020160009054906101000a900473ffffffffffffffffffffffffffffffffffffffff1673ffffffffffffffffffffffffffffffffffffffff16141561074f576040517f08c379a000000000000000000000000000000000000000000000000000000000815260040161074690610f3f565b60405180910390fd5b346002600083815260200190815260200160002060030160008282546107759190611047565b925050819055506002600082815260200190815260200160002060020160009054906101000a900473ffffffffffffffffffffffffffffffffffffffff1673ffffffffffffffffffffffffffffffffffffffff166108fc349081150290604051600060405180830381858888f193505050501580156107f8573d6000803e3d6000fd5b5034600360003373ffffffffffffffffffffffffffffffffffffffff1673ffffffffffffffffffffffffffffffffffffffff168152602001908152602001600020600001600082825461084b9190611047565b925050819055506004339080600181540180825580915050600190039060005260206000200160009091909190916101000a81548173ffffffffffffffffffffffffffffffffffffffff021916908373ffffffffffffffffffffffffffffffffffffffff1602179055506002600082815260200190815260200160002060020160009054906101000a900473ffffffffffffffffffffffffffffffffffffffff1673ffffffffffffffffffffffffffffffffffffffff163373ffffffffffffffffffffffffffffffffffffffff167f70c6bc6cf53707fb5561feef795d557f7e46f57bd4f1a13ce36e9ffdf58d38bb346040516109489190610f7f565b60405180910390a350565b60036020528060005260406000206000915090508060000154905081565b60026020528060005260406000206000915090508060000180546109949061112d565b80601f01602080910402602001604051908101604052809291908181526020018280546109c09061112d565b8015610a0d5780601f106109e257610100808354040283529160200191610a0d565b820191906000526020600020905b8154815290600101906020018083116109f057829003601f168201915b505050505090806001018054610a229061112d565b80601f0160208091040260200160405190810160405280929190818152602001828054610a4e9061112d565b8015610a9b5780601f10610a7057610100808354040283529160200191610a9b565b820191906000526020600020905b815481529060010190602001808311610a7e57829003601f168201915b5050505050908060020160009054906101000a900473ffffffffffffffffffffffffffffffffffffffff16908060030154905084565b828054610add9061112d565b90600052602060002090601f016020900481019282610aff5760008555610b46565b82601f10610b1857805160ff1916838001178555610b46565b82800160010185558215610b46579182015b82811115610b45578251825591602001919060010190610b2a565b5b509050610b539190610b57565b5090565b5b80821115610b70576000816000905550600101610b58565b5090565b6000610b87610b8284610ffb565b610fca565b905082815260208101848484011115610b9f57600080fd5b610baa8482856110eb565b509392505050565b600081359050610bc181611246565b92915050565b600081359050610bd68161125d565b92915050565b600082601f830112610bed57600080fd5b8135610bfd848260208601610b74565b91505092915050565b600081359050610c1581611274565b92915050565b600060208284031215610c2d57600080fd5b6000610c3b84828501610bb2565b91505092915050565b600080600060608486031215610c5957600080fd5b600084013567ffffffffffffffff811115610c7357600080fd5b610c7f86828701610bdc565b935050602084013567ffffffffffffffff811115610c9c57600080fd5b610ca886828701610bdc565b9250506040610cb986828701610bc7565b9150509250925092565b600060208284031215610cd557600080fd5b6000610ce384828501610c06565b91505092915050565b610cf5816110af565b82525050565b610d048161109d565b82525050565b6000610d158261102b565b610d1f8185611036565b9350610d2f8185602086016110fa565b610d3881611235565b840191505092915050565b6000610d50602683611036565b91507f446f6e6174696f6e20616d6f756e74206d75737420626520677265617465722060008301527f7468616e203000000000000000000000000000000000000000000000000000006020830152604082019050919050565b6000610db6601683611036565b91507f4368617269747920646f6573206e6f74206578697374000000000000000000006000830152602082019050919050565b6000610df6602283611036565b91507f4f6e6c79206f776e65722063616e20706572666f726d2074686973206163746960008301527f6f6e0000000000000000000000000000000000000000000000000000000000006020830152604082019050919050565b610e58816110e1565b82525050565b6000602082019050610e736000830184610cfb565b92915050565b60006080820190508181036000830152610e938187610d0a565b90508181036020830152610ea78186610d0a565b9050610eb66040830185610cec565b610ec36060830184610e4f565b95945050505050565b60006080820190508181036000830152610ee68187610d0a565b90508181036020830152610efa8186610d0a565b9050610f096040830185610cfb565b610f166060830184610e4f565b95945050505050565b60006020820190508181036000830152610f3881610d43565b9050919050565b60006020820190508181036000830152610f5881610da9565b9050919050565b60006020820190508181036000830152610f7881610de9565b9050919050565b6000602082019050610f946000830184610e4f565b92915050565b6000604082019050610faf6000830185610e4f565b8181036020830152610fc18184610d0a565b90509392505050565b6000604051905081810181811067ffffffffffffffff82111715610ff157610ff0611206565b5b8060405250919050565b600067ffffffffffffffff82111561101657611015611206565b5b601f19601f8301169050602081019050919050565b600081519050919050565b600082825260208201905092915050565b6000611052826110e1565b915061105d836110e1565b9250827fffffffffffffffffffffffffffffffffffffffffffffffffffffffffffffffff03821115611092576110916111a8565b5b828201905092915050565b60006110a8826110c1565b9050919050565b60006110ba826110c1565b9050919050565b600073ffffffffffffffffffffffffffffffffffffffff82169050919050565b6000819050919050565b82818337600083830152505050565b60005b838110156111185780820151818401526020810190506110fd565b83811115611127576000848401525b50505050565b6000600282049050600182168061114557607f821691505b60208210811415611159576111586111d7565b5b50919050565b600061116a826110e1565b91507fffffffffffffffffffffffffffffffffffffffffffffffffffffffffffffffff82141561119d5761119c6111a8565b5b600182019050919050565b7f4e487b7100000000000000000000000000000000000000000000000000000000600052601160045260246000fd5b7f4e487b7100000000000000000000000000000000000000000000000000000000600052602260045260246000fd5b7f4e487b7100000000000000000000000000000000000000000000000000000000600052604160045260246000fd5b6000601f19601f8301169050919050565b61124f8161109d565b811461125a57600080fd5b50565b611266816110af565b811461127157600080fd5b50565b61127d816110e1565b811461128857600080fd5b5056fea26469706673582212207315afd41d1e4f7944a183a768dc3077680dd73d9a36595a3f0a884dca8e676f64736f6c63430008000033",
  "immutableReferences": {},
  "source": "// SPDX-License-Identifier: MIT\r\npragma solidity ^0.8.0;\r\n\r\ncontract CharityPlatform {\r\n    address public owner;\r\n    uint public charityCount = 0; //Track the number of charities\r\n\r\n    struct Charity {\r\n        string name;\r\n        string description;\r\n        address payable charityAddress;\r\n        uint balance;\r\n    }\r\n\r\n    struct Donor {\r\n        uint totalDonated;\r\n    }\r\n\r\n    mapping(uint => Charity) public charities; //Store charities using an ID instead of address\r\n    mapping(address => Donor) public donors;  //Declare `donors` mapping\r\n    address[] public donorList;  //Declare `donorList` array\r\n\r\n    event CharityCreated(uint charityId, address indexed charityAddress, string name);\r\n    event DonationMade(address indexed donor, address indexed charity, uint amount);\r\n\r\n    modifier onlyOwner() {\r\n        require(msg.sender == owner, \"Only owner can perform this action\");\r\n        _;\r\n    }\r\n\r\n    constructor() {\r\n        owner = msg.sender;\r\n    }\r\n\r\n    function createCharity(string memory _name, string memory _description, address payable _charityAddress) public onlyOwner {\r\n        charityCount++; //Increment charity count\r\n        charities[charityCount] = Charity(_name, _description, _charityAddress, 0);\r\n        emit CharityCreated(charityCount, _charityAddress, _name);\r\n    }\r\n\r\n    function donateToCharity(uint _charityId) public payable {\r\n        require(msg.value > 0, \"Donation amount must be greater than 0\");\r\n        require(charities[_charityId].charityAddress != address(0), \"Charity does not exist\");\r\n\r\n        charities[_charityId].balance += msg.value;\r\n        payable(charities[_charityId].charityAddress).transfer(msg.value);\r\n\r\n        donors[msg.sender].totalDonated += msg.value;  //Now includes donor address\r\n        donorList.push(msg.sender);  //Stores the donor address\r\n\r\n        emit DonationMade(msg.sender, charities[_charityId].charityAddress, msg.value);\r\n    }\r\n\r\n    function getCharityCount() public view returns (uint) {\r\n        return charityCount;\r\n    }\r\n\r\n    function getCharityDetails(uint _charityId) public view returns (string memory, string memory, address, uint) {\r\n        Charity memory charity = charities[_charityId];\r\n        return (charity.name, charity.description, charity.charityAddress, charity.balance);\r\n    }\r\n}",
  "sourcePath": "C:\\Users\\arthp\\OneDrive\\Desktop\\Project\\contracts\\CharityPlatform.sol",
  "compiler": {
    "name": "solc",
    "version": "0.8.0+commit.c7dfd78e.Emscripten.clang"
  },
  "schemaVersion": "3.4.16",
  "updatedAt": "2025-03-26T16:03:58.135Z",
  "devdoc": {
    "kind": "dev",
    "methods": {},
    "version": 1
  },
  "userdoc": {
    "kind": "user",
    "methods": {},
    "version": 1
  }
}