{
  "contractName": "CharityPlatform",
  "abi": [
    {
      "anonymous": false,
      "inputs": [
        {
          "indexed": false,
          "internalType": "uint256",
          "name": "id",
          "type": "uint256"
        },
        {
          "indexed": false,
          "internalType": "string",
          "name": "name",
          "type": "string"
        },
        {
          "indexed": false,
          "internalType": "string",
          "name": "description",
          "type": "string"
        },
        {
          "indexed": false,
          "internalType": "address",
          "name": "charityAddress",
          "type": "address"
        }
      ],
      "name": "CharityCreated",
      "type": "event"
    },
    {
      "anonymous": false,
      "inputs": [
        {
          "indexed": false,
          "internalType": "uint256",
          "name": "charityId",
          "type": "uint256"
        },
        {
          "indexed": false,
          "internalType": "address",
          "name": "donor",
          "type": "address"
        },
        {
          "indexed": false,
          "internalType": "uint256",
          "name": "amount",
          "type": "uint256"
        }
      ],
      "name": "DonationReceived",
      "type": "event"
    },
    {
      "inputs": [
        {
          "internalType": "uint256",
          "name": "",
          "type": "uint256"
        }
      ],
      "name": "charities",
      "outputs": [
        {
          "internalType": "string",
          "name": "name",
          "type": "string"
        },
        {
          "internalType": "string",
          "name": "description",
          "type": "string"
        },
        {
          "internalType": "address payable",
          "name": "charityAddress",
          "type": "address"
        },
        {
          "internalType": "uint256",
          "name": "balance",
          "type": "uint256"
        }
      ],
      "stateMutability": "view",
      "type": "function",
      "constant": true
    },
    {
      "inputs": [],
      "name": "charityCount",
      "outputs": [
        {
          "internalType": "uint256",
          "name": "",
          "type": "uint256"
        }
      ],
      "stateMutability": "view",
      "type": "function",
      "constant": true
    },
    {
      "inputs": [
        {
          "internalType": "string",
          "name": "_name",
          "type": "string"
        },
        {
          "internalType": "string",
          "name": "_description",
          "type": "string"
        },
        {
          "internalType": "address payable",
          "name": "_charityAddress",
          "type": "address"
        }
      ],
      "name": "createCharity",
      "outputs": [],
      "stateMutability": "nonpayable",
      "type": "function"
    },
    {
      "inputs": [
        {
          "internalType": "uint256",
          "name": "_charityId",
          "type": "uint256"
        }
      ],
      "name": "donateToCharity",
      "outputs": [],
      "stateMutability": "payable",
      "type": "function",
      "payable": true
    },
    {
      "inputs": [
        {
          "internalType": "uint256",
          "name": "_charityId",
          "type": "uint256"
        }
      ],
      "name": "getCharityDetails",
      "outputs": [
        {
          "internalType": "string",
          "name": "",
          "type": "string"
        },
        {
          "internalType": "string",
          "name": "",
          "type": "string"
        },
        {
          "internalType": "address",
          "name": "",
          "type": "address"
        },
        {
          "internalType": "uint256",
          "name": "",
          "type": "uint256"
        }
      ],
      "stateMutability": "view",
      "type": "function",
      "constant": true
    },
    {
      "inputs": [],
      "name": "getCharityCount",
      "outputs": [
        {
          "internalType": "uint256",
          "name": "",
          "type": "uint256"
        }
      ],
      "stateMutability": "view",
      "type": "function",
      "constant": true
    }
  ],
  "bytecode": "0x608060405234801561001057600080fd5b50610e7a806100206000396000f3fe6080604052600436106100555760003560e01c806314bbb9ac1461005a578063539a4a31146100835780637185a44b146100c357806391329493146100ee578063beeaee9114610119578063fb709d2e14610135575b600080fd5b34801561006657600080fd5b50610081600480360381019061007c919061089c565b610175565b005b34801561008f57600080fd5b506100aa60048036038101906100a5919061091b565b6102ab565b6040516100ba9493929190610a4c565b60405180910390f35b3480156100cf57600080fd5b506100d86104cb565b6040516100e59190610abf565b60405180910390f35b3480156100fa57600080fd5b506101036104d5565b6040516101109190610abf565b60405180910390f35b610133600480360381019061012e919061091b565b6104db565b005b34801561014157600080fd5b5061015c6004803603810190610157919061091b565b610607565b60405161016c94939291906109f9565b60405180910390f35b6001600081548092919061018890610d2f565b919050555060405180608001604052808481526020018381526020018273ffffffffffffffffffffffffffffffffffffffff1681526020016000815250600080600154815260200190815260200160002060008201518160000190805190602001906101f5929190610767565b506020820151816001019080519060200190610212929190610767565b5060408201518160020160006101000a81548173ffffffffffffffffffffffffffffffffffffffff021916908373ffffffffffffffffffffffffffffffffffffffff160217905550606082015181600301559050507f7706f6fd6a9329cb067be5b3773414604a25a20eaa9bd5069386668c3c35f49560015484848460405161029e9493929190610b11565b60405180910390a1505050565b6060806000806000851180156102c357506001548511155b610302576040517f08c379a00000000000000000000000000000000000000000000000000000000081526004016102f990610a9f565b60405180910390fd5b600080600087815260200190815260200160002060405180608001604052908160008201805461033190610cfd565b80601f016020809104026020016040519081016040528092919081815260200182805461035d90610cfd565b80156103aa5780601f1061037f576101008083540402835291602001916103aa565b820191906000526020600020905b81548152906001019060200180831161038d57829003601f168201915b505050505081526020016001820180546103c390610cfd565b80601f01602080910402602001604051908101604052809291908181526020018280546103ef90610cfd565b801561043c5780601f106104115761010080835404028352916020019161043c565b820191906000526020600020905b81548152906001019060200180831161041f57829003601f168201915b505050505081526020016002820160009054906101000a900473ffffffffffffffffffffffffffffffffffffffff1673ffffffffffffffffffffffffffffffffffffffff1673ffffffffffffffffffffffffffffffffffffffff168152602001600382015481525050905080600001518160200151826040015183606001519450945094509450509193509193565b6000600154905090565b60015481565b6000811180156104ed57506001548111155b61052c576040517f08c379a000000000000000000000000000000000000000000000000000000000815260040161052390610a9f565b60405180910390fd5b60008060008381526020019081526020016000209050348160030160008282546105569190610be1565b925050819055508060020160009054906101000a900473ffffffffffffffffffffffffffffffffffffffff1673ffffffffffffffffffffffffffffffffffffffff166108fc349081150290604051600060405180830381858888f193505050501580156105c7573d6000803e3d6000fd5b507f0b5b4c52969ff7329ecf7ee536409fda87812b15a8622bc6e8cdeab3aee14a268233346040516105fb93929190610ada565b60405180910390a15050565b600060205280600052604060002060009150905080600001805461062a90610cfd565b80601f016020809104026020016040519081016040528092919081815260200182805461065690610cfd565b80156106a35780601f10610678576101008083540402835291602001916106a3565b820191906000526020600020905b81548152906001019060200180831161068657829003601f168201915b5050505050908060010180546106b890610cfd565b80601f01602080910402602001604051908101604052809291908181526020018280546106e490610cfd565b80156107315780601f1061070657610100808354040283529160200191610731565b820191906000526020600020905b81548152906001019060200180831161071457829003601f168201915b5050505050908060020160009054906101000a900473ffffffffffffffffffffffffffffffffffffffff16908060030154905084565b82805461077390610cfd565b90600052602060002090601f01602090048101928261079557600085556107dc565b82601f106107ae57805160ff19168380011785556107dc565b828001600101855582156107dc579182015b828111156107db5782518255916020019190600101906107c0565b5b5090506107e991906107ed565b5090565b5b808211156108065760008160009055506001016107ee565b5090565b600061081d61081884610b95565b610b64565b90508281526020810184848401111561083557600080fd5b610840848285610cbb565b509392505050565b60008135905061085781610e16565b92915050565b600082601f83011261086e57600080fd5b813561087e84826020860161080a565b91505092915050565b60008135905061089681610e2d565b92915050565b6000806000606084860312156108b157600080fd5b600084013567ffffffffffffffff8111156108cb57600080fd5b6108d78682870161085d565b935050602084013567ffffffffffffffff8111156108f457600080fd5b6109008682870161085d565b925050604061091186828701610848565b9150509250925092565b60006020828403121561092d57600080fd5b600061093b84828501610887565b91505092915050565b61094d81610c85565b82525050565b61095c81610c49565b82525050565b61096b81610c37565b82525050565b600061097c82610bc5565b6109868185610bd0565b9350610996818560208601610cca565b61099f81610e05565b840191505092915050565b60006109b7601283610bd0565b91507f496e76616c6964206368617269747920494400000000000000000000000000006000830152602082019050919050565b6109f381610c7b565b82525050565b60006080820190508181036000830152610a138187610971565b90508181036020830152610a278186610971565b9050610a366040830185610953565b610a4360608301846109ea565b95945050505050565b60006080820190508181036000830152610a668187610971565b90508181036020830152610a7a8186610971565b9050610a896040830185610962565b610a9660608301846109ea565b95945050505050565b60006020820190508181036000830152610ab8816109aa565b9050919050565b6000602082019050610ad460008301846109ea565b92915050565b6000606082019050610aef60008301866109ea565b610afc6020830185610962565b610b0960408301846109ea565b949350505050565b6000608082019050610b2660008301876109ea565b8181036020830152610b388186610971565b90508181036040830152610b4c8185610971565b9050610b5b6060830184610944565b95945050505050565b6000604051905081810181811067ffffffffffffffff82111715610b8b57610b8a610dd6565b5b8060405250919050565b600067ffffffffffffffff821115610bb057610baf610dd6565b5b601f19601f8301169050602081019050919050565b600081519050919050565b600082825260208201905092915050565b6000610bec82610c7b565b9150610bf783610c7b565b9250827fffffffffffffffffffffffffffffffffffffffffffffffffffffffffffffffff03821115610c2c57610c2b610d78565b5b828201905092915050565b6000610c4282610c5b565b9050919050565b6000610c5482610c5b565b9050919050565b600073ffffffffffffffffffffffffffffffffffffffff82169050919050565b6000819050919050565b6000610c9082610c97565b9050919050565b6000610ca282610ca9565b9050919050565b6000610cb482610c5b565b9050919050565b82818337600083830152505050565b60005b83811015610ce8578082015181840152602081019050610ccd565b83811115610cf7576000848401525b50505050565b60006002820490506001821680610d1557607f821691505b60208210811415610d2957610d28610da7565b5b50919050565b6000610d3a82610c7b565b91507fffffffffffffffffffffffffffffffffffffffffffffffffffffffffffffffff821415610d6d57610d6c610d78565b5b600182019050919050565b7f4e487b7100000000000000000000000000000000000000000000000000000000600052601160045260246000fd5b7f4e487b7100000000000000000000000000000000000000000000000000000000600052602260045260246000fd5b7f4e487b7100000000000000000000000000000000000000000000000000000000600052604160045260246000fd5b6000601f19601f8301169050919050565b610e1f81610c49565b8114610e2a57600080fd5b50565b610e3681610c7b565b8114610e4157600080fd5b5056fea26469706673582212206c63b6f4d9cc10634583dd2a8ec0ffd966248587ee0165bf35801ae3f1a4fac764736f6c63430008000033",
  "immutableReferences": {},
  "source": "// SPDX-License-Identifier: MIT\r\npragma solidity ^0.8.0;\r\n\r\ncontract CharityPlatform {\r\n    struct Charity {\r\n        string name;\r\n        string description;\r\n        address payable charityAddress;\r\n        uint256 balance;\r\n    }\r\n\r\n    mapping(uint => Charity) public charities;\r\n    uint public charityCount;\r\n\r\n    event CharityCreated(uint id, string name, string description, address charityAddress);\r\n    event DonationReceived(uint charityId, address donor, uint amount);\r\n\r\n    function createCharity(string memory _name, string memory _description, address payable _charityAddress) public {\r\n        charityCount++;\r\n        charities[charityCount] = Charity(_name, _description, _charityAddress, 0);\r\n        emit CharityCreated(charityCount, _name, _description, _charityAddress);\r\n    }\r\n\r\n    function donateToCharity(uint _charityId) public payable {\r\n        require(_charityId > 0 && _charityId <= charityCount, \"Invalid charity ID\");\r\n        Charity storage charity = charities[_charityId];\r\n        charity.balance += msg.value;\r\n        charity.charityAddress.transfer(msg.value);\r\n        emit DonationReceived(_charityId, msg.sender, msg.value);\r\n    }\r\n\r\n    function getCharityDetails(uint _charityId) public view returns (string memory, string memory, address, uint256) {\r\n        require(_charityId > 0 && _charityId <= charityCount, \"Invalid charity ID\");\r\n        Charity memory charity = charities[_charityId];\r\n        return (charity.name, charity.description, charity.charityAddress, charity.balance);\r\n    }\r\n\r\n    function getCharityCount() public view returns (uint) {\r\n        return charityCount;\r\n    }\r\n}\r\n",
  "sourcePath": "C:\\Users\\arthp\\OneDrive\\Desktop\\demo\\contracts\\CharityPlatform.sol",
  "compiler": {
    "name": "solc",
    "version": "0.8.0+commit.c7dfd78e.Emscripten.clang"
  },
  "schemaVersion": "3.4.16",
  "updatedAt": "2025-03-23T21:09:01.737Z",
  "networkType": "ethereum",
  "devdoc": {
    "kind": "dev",
    "methods": {},
    "version": 1
  },
  "userdoc": {
    "kind": "user",
    "methods": {},
    "version": 1
  }
}